{
  "contractName": "BSCSwapAgentImpl",
  "abi": [
    {
      "inputs": [],
      "stateMutability": "nonpayable",
      "type": "constructor"
    },
    {
      "anonymous": false,
      "inputs": [
        {
          "indexed": true,
          "internalType": "address",
          "name": "previousOwner",
          "type": "address"
        },
        {
          "indexed": true,
          "internalType": "address",
          "name": "newOwner",
          "type": "address"
        }
      ],
      "name": "OwnershipTransferred",
      "type": "event"
    },
    {
      "anonymous": false,
      "inputs": [
        {
          "indexed": true,
          "internalType": "address",
          "name": "bep20Addr",
          "type": "address"
        },
        {
          "indexed": true,
          "internalType": "bytes32",
          "name": "ethTxHash",
          "type": "bytes32"
        },
        {
          "indexed": true,
          "internalType": "address",
          "name": "toAddress",
          "type": "address"
        },
        {
          "indexed": false,
          "internalType": "uint256",
          "name": "amount",
          "type": "uint256"
        }
      ],
      "name": "SwapFilled",
      "type": "event"
    },
    {
      "anonymous": false,
      "inputs": [
        {
          "indexed": true,
          "internalType": "bytes32",
          "name": "ethRegisterTxHash",
          "type": "bytes32"
        },
        {
          "indexed": true,
          "internalType": "address",
          "name": "bep20Addr",
          "type": "address"
        },
        {
          "indexed": true,
          "internalType": "address",
          "name": "erc20Addr",
          "type": "address"
        },
        {
          "indexed": false,
          "internalType": "string",
          "name": "symbol",
          "type": "string"
        },
        {
          "indexed": false,
          "internalType": "string",
          "name": "name",
          "type": "string"
        },
        {
          "indexed": false,
          "internalType": "uint8",
          "name": "decimals",
          "type": "uint8"
        }
      ],
      "name": "SwapPairCreated",
      "type": "event"
    },
    {
      "anonymous": false,
      "inputs": [
        {
          "indexed": true,
          "internalType": "address",
          "name": "bep20Addr",
          "type": "address"
        },
        {
          "indexed": true,
          "internalType": "address",
          "name": "erc20Addr",
          "type": "address"
        },
        {
          "indexed": true,
          "internalType": "address",
          "name": "fromAddr",
          "type": "address"
        },
        {
          "indexed": false,
          "internalType": "uint256",
          "name": "amount",
          "type": "uint256"
        },
        {
          "indexed": false,
          "internalType": "uint256",
          "name": "feeAmount",
          "type": "uint256"
        }
      ],
      "name": "SwapStarted",
      "type": "event"
    },
    {
      "inputs": [],
      "name": "bep20Implementation",
      "outputs": [
        {
          "internalType": "address",
          "name": "",
          "type": "address"
        }
      ],
      "stateMutability": "view",
      "type": "function"
    },
    {
      "inputs": [],
      "name": "bep20ProxyAdmin",
      "outputs": [
        {
          "internalType": "address",
          "name": "",
          "type": "address"
        }
      ],
      "stateMutability": "view",
      "type": "function"
    },
    {
      "inputs": [
        {
          "internalType": "bytes32",
          "name": "",
          "type": "bytes32"
        }
      ],
      "name": "filledETHTx",
      "outputs": [
        {
          "internalType": "bool",
          "name": "",
          "type": "bool"
        }
      ],
      "stateMutability": "view",
      "type": "function"
    },
    {
      "inputs": [],
      "name": "owner",
      "outputs": [
        {
          "internalType": "address payable",
          "name": "",
          "type": "address"
        }
      ],
      "stateMutability": "view",
      "type": "function"
    },
    {
      "inputs": [],
      "name": "swapFee",
      "outputs": [
        {
          "internalType": "uint256",
          "name": "",
          "type": "uint256"
        }
      ],
      "stateMutability": "view",
      "type": "function"
    },
    {
      "inputs": [
        {
          "internalType": "address",
          "name": "",
          "type": "address"
        }
      ],
      "name": "swapMappingBSC2ETH",
      "outputs": [
        {
          "internalType": "address",
          "name": "",
          "type": "address"
        }
      ],
      "stateMutability": "view",
      "type": "function"
    },
    {
      "inputs": [
        {
          "internalType": "address",
          "name": "",
          "type": "address"
        }
      ],
      "name": "swapMappingETH2BSC",
      "outputs": [
        {
          "internalType": "address",
          "name": "",
          "type": "address"
        }
      ],
      "stateMutability": "view",
      "type": "function"
    },
    {
      "inputs": [
        {
          "internalType": "address",
          "name": "bep20Impl",
          "type": "address"
        },
        {
          "internalType": "uint256",
          "name": "fee",
          "type": "uint256"
        },
        {
          "internalType": "address payable",
          "name": "ownerAddr",
          "type": "address"
        },
        {
          "internalType": "address",
          "name": "bep20ProxyAdminAddr",
          "type": "address"
        }
      ],
      "name": "initialize",
      "outputs": [],
      "stateMutability": "nonpayable",
      "type": "function"
    },
    {
      "inputs": [],
      "name": "renounceOwnership",
      "outputs": [],
      "stateMutability": "nonpayable",
      "type": "function"
    },
    {
      "inputs": [
        {
          "internalType": "address payable",
          "name": "newOwner",
          "type": "address"
        }
      ],
      "name": "transferOwnership",
      "outputs": [],
      "stateMutability": "nonpayable",
      "type": "function"
    },
    {
      "inputs": [
        {
          "internalType": "uint256",
          "name": "fee",
          "type": "uint256"
        }
      ],
      "name": "setSwapFee",
      "outputs": [],
      "stateMutability": "nonpayable",
      "type": "function"
    },
    {
      "inputs": [
        {
          "internalType": "bytes32",
          "name": "ethTxHash",
          "type": "bytes32"
        },
        {
          "internalType": "address",
          "name": "erc20Addr",
          "type": "address"
        },
        {
          "internalType": "string",
          "name": "name",
          "type": "string"
        },
        {
          "internalType": "string",
          "name": "symbol",
          "type": "string"
        },
        {
          "internalType": "uint8",
          "name": "decimals",
          "type": "uint8"
        }
      ],
      "name": "createSwapPair",
      "outputs": [
        {
          "internalType": "address",
          "name": "",
          "type": "address"
        }
      ],
      "stateMutability": "nonpayable",
      "type": "function"
    },
    {
      "inputs": [
        {
          "internalType": "bytes32",
          "name": "ethTxHash",
          "type": "bytes32"
        },
        {
          "internalType": "address",
          "name": "erc20Addr",
          "type": "address"
        },
        {
          "internalType": "address",
          "name": "toAddress",
          "type": "address"
        },
        {
          "internalType": "uint256",
          "name": "amount",
          "type": "uint256"
        }
      ],
      "name": "fillETH2BSCSwap",
      "outputs": [
        {
          "internalType": "bool",
          "name": "",
          "type": "bool"
        }
      ],
      "stateMutability": "nonpayable",
      "type": "function"
    },
    {
      "inputs": [
        {
          "internalType": "address",
          "name": "bep20Addr",
          "type": "address"
        },
        {
          "internalType": "uint256",
          "name": "amount",
          "type": "uint256"
        }
      ],
      "name": "swapBSC2ETH",
      "outputs": [
        {
          "internalType": "bool",
          "name": "",
          "type": "bool"
        }
      ],
      "stateMutability": "payable",
      "type": "function"
    }
  ],
  "bytecode": "0x608060405234801561001057600080fd5b50611db3806100206000396000f3fe608060405260043610620000f25760003560e01c806360b810f1116200008b5780638da5cb5b11620000615780638da5cb5b146200039b578063be0ace6914620003b3578063e307b93114620003ea578063f2fde38b146200043757620000f2565b806360b810f1146200033457806366fec65c146200036b578063715018a6146200038357620000f2565b806334e1990711620000cd57806334e19907146200025f578063358394d8146200028f5780634e2dc7f114620002dc57806354cf2aeb146200030a57620000f2565b80630344165a14620000f75780631ba3b150146200012b57806332bd6e31146200016e575b600080fd5b3480156200010457600080fd5b506200010f6200046e565b604080516001600160a01b039092168252519081900360200190f35b6200015a600480360360408110156200014357600080fd5b506001600160a01b0381351690602001356200047d565b604080519115158252519081900360200190f35b3480156200017b57600080fd5b506200010f600480360360a08110156200019457600080fd5b8135916001600160a01b0360208201351691810190606081016040820135640100000000811115620001c557600080fd5b820183602082011115620001d857600080fd5b80359060200191846001830284011164010000000083111715620001fb57600080fd5b9193909290916020810190356401000000008111156200021a57600080fd5b8201836020820111156200022d57600080fd5b803590602001918460018302840111640100000000831117156200025057600080fd5b91935091503560ff1662000717565b3480156200026c57600080fd5b506200028d600480360360208110156200028557600080fd5b503562000a24565b005b3480156200029c57600080fd5b506200028d60048036036080811015620002b557600080fd5b506001600160a01b0381358116916020810135916040820135811691606001351662000a85565b348015620002e957600080fd5b506200015a600480360360208110156200030257600080fd5b503562000b75565b3480156200031757600080fd5b506200032262000b8a565b60408051918252519081900360200190f35b3480156200034157600080fd5b506200010f600480360360208110156200035a57600080fd5b50356001600160a01b031662000b90565b3480156200037857600080fd5b506200010f62000bab565b3480156200039057600080fd5b506200028d62000bba565b348015620003a857600080fd5b506200010f62000c60565b348015620003c057600080fd5b506200010f60048036036020811015620003d957600080fd5b50356001600160a01b031662000c6f565b348015620003f757600080fd5b506200015a600480360360808110156200041057600080fd5b508035906001600160a01b0360208201358116916040810135909116906060013562000c8a565b3480156200044457600080fd5b506200028d600480360360208110156200045d57600080fd5b50356001600160a01b031662000e9f565b6005546001600160a01b031681565b60006200048a3362000f9e565b15620004dd576040805162461bcd60e51b815260206004820152601f60248201527f636f6e7472616374206973206e6f7420616c6c6f77656420746f207377617000604482015290519081900360640190fd5b33321462000532576040805162461bcd60e51b815260206004820152601c60248201527f6e6f2070726f787920636f6e747261637420697320616c6c6f77656400000000604482015290519081900360640190fd5b6001600160a01b038084166000908152600260205260409020541680620005a0576040805162461bcd60e51b815260206004820152601b60248201527f6e6f2073776170207061697220666f72207468697320746f6b656e0000000000604482015290519081900360640190fd5b6007543414620005ec576040805162461bcd60e51b81526020600482015260126024820152711cddd85c08199959481b9bdd08195c5d585b60721b604482015290519081900360640190fd5b620006096001600160a01b03851633308663ffffffff62000fa416565b836001600160a01b03166342966c68846040518263ffffffff1660e01b815260040180828152602001915050602060405180830381600087803b1580156200065057600080fd5b505af115801562000665573d6000803e3d6000fd5b505050506040513d60208110156200067c57600080fd5b50503415620006c1576004546040516001600160a01b03909116903480156108fc02916000818181858888f19350505050158015620006bf573d6000803e3d6000fd5b505b60408051848152346020820152815133926001600160a01b0385811693908916927f49c08ff11118922c1e8298915531eff9ef6f8b39b44b3e9952b75d47e1d0cdd0929181900390910190a45060019392505050565b60006200072362001006565b6004546001600160a01b0390811691161462000775576040805162461bcd60e51b8152602060048201819052602482015260008051602062001d34833981519152604482015290519081900360640190fd5b6001600160a01b038781166000908152600160205260409020541615620007da576040805162461bcd60e51b8152602060048201526014602482015273323ab83634b1b0ba32b21039bbb0b8103830b4b960611b604482015290519081900360640190fd5b6006546005546040516000926001600160a01b03908116921690620007ff90620012f8565b6001600160a01b03928316815291166020820152606060408083018290526000918301829052519182900360a0019190f08015801562000843573d6000803e3d6000fd5b50604051631de7d79760e31b815260ff851660448201526000606482018190526001608483018190523060a4840181905260c06004850190815260c485018c905294955085946001600160a01b0386169463ef3ebcb8948e948e948e948e948e94939291908190602481019060e4018b8b80828437600083820152601f01601f191690910184810383528981526020019050898980828437600081840152601f19601f8201169050808301925050509a5050505050505050505050600060405180830381600087803b1580156200091957600080fd5b505af11580156200092e573d6000803e3d6000fd5b5050506001600160a01b03808b16600081815260016020908152604080832080549588166001600160a01b03199687168117909155808452600283529281902080549095168417909455835160ff8a1694810194909452606080855284018a9052919350918d917fcc0314763eabceb74cd3d30ae785c09bfe4e204af2088b3bfcdbbe5082133db5918b918b918f918f918d918190810160808201888880828437600083820152601f01601f191690910184810383528681526020019050868680828437600083820152604051601f909101601f1916909201829003995090975050505050505050a49998505050505050505050565b62000a2e62001006565b6004546001600160a01b0390811691161462000a80576040805162461bcd60e51b8152602060048201819052602482015260008051602062001d34833981519152604482015290519081900360640190fd5b600755565b600054610100900460ff168062000aa1575062000aa16200100a565b8062000ab0575060005460ff16155b62000aed5760405162461bcd60e51b815260040180806020018281038252602e81526020018062001d06602e913960400191505060405180910390fd5b600054610100900460ff1615801562000b19576000805460ff1961ff0019909116610100171660011790555b600680546001600160a01b038088166001600160a01b0319928316179092556007869055600480548684169083161790556005805492851692909116919091179055801562000b6e576000805461ff00191690555b5050505050565b60036020526000908152604090205460ff1681565b60075481565b6001602052600090815260409020546001600160a01b031681565b6006546001600160a01b031681565b62000bc462001006565b6004546001600160a01b0390811691161462000c16576040805162461bcd60e51b8152602060048201819052602482015260008051602062001d34833981519152604482015290519081900360640190fd5b6004546040516000916001600160a01b0316907f8be0079c531659141344cd1fd0a4f28419497f9722a3daafe3b4186f6b6457e0908390a3600480546001600160a01b0319169055565b6004546001600160a01b031681565b6002602052600090815260409020546001600160a01b031681565b600062000c9662001006565b6004546001600160a01b0390811691161462000ce8576040805162461bcd60e51b8152602060048201819052602482015260008051602062001d34833981519152604482015290519081900360640190fd5b60008581526003602052604090205460ff161562000d45576040805162461bcd60e51b81526020600482015260156024820152746574682074782066696c6c656420616c726561647960581b604482015290519081900360640190fd5b6001600160a01b03808516600090815260016020526040902054168062000db3576040805162461bcd60e51b815260206004820152601b60248201527f6e6f2073776170207061697220666f72207468697320746f6b656e0000000000604482015290519081900360640190fd5b6000868152600360209081526040808320805460ff191660011790558051635b91d9a760e11b8152600481018790526001600160a01b03888116602483015291519185169363b723b34e9360448084019491939192918390030190829087803b15801562000e2057600080fd5b505af115801562000e35573d6000803e3d6000fd5b505050506040513d602081101562000e4c57600080fd5b50506040805184815290516001600160a01b03808716928992918516917f3bebd9a738291e69898b5dbfadb6329b4b09fc648bdef68762928e521463abd99181900360200190a450600195945050505050565b62000ea962001006565b6004546001600160a01b0390811691161462000efb576040805162461bcd60e51b8152602060048201819052602482015260008051602062001d34833981519152604482015290519081900360640190fd5b6001600160a01b03811662000f425760405162461bcd60e51b815260040180806020018281038252602681526020018062001cba6026913960400191505060405180910390fd5b6004546040516001600160a01b038084169216907f8be0079c531659141344cd1fd0a4f28419497f9722a3daafe3b4186f6b6457e090600090a3600480546001600160a01b0319166001600160a01b0392909216919091179055565b3b151590565b604080516001600160a01b0380861660248301528416604482015260648082018490528251808303909101815260849091019091526020810180516001600160e01b03166323b872dd60e01b1790526200100090859062001010565b50505050565b3390565b303b1590565b606062001067826040518060400160405280602081526020017f5361666545524332303a206c6f772d6c6576656c2063616c6c206661696c6564815250856001600160a01b0316620010cc9092919063ffffffff16565b805190915015620010c7578080602001905160208110156200108857600080fd5b5051620010c75760405162461bcd60e51b815260040180806020018281038252602a81526020018062001d54602a913960400191505060405180910390fd5b505050565b6060620010dd8484600085620010e7565b90505b9392505050565b6060824710156200112a5760405162461bcd60e51b815260040180806020018281038252602681526020018062001ce06026913960400191505060405180910390fd5b620011358562000f9e565b62001187576040805162461bcd60e51b815260206004820152601d60248201527f416464726573733a2063616c6c20746f206e6f6e2d636f6e7472616374000000604482015290519081900360640190fd5b60006060866001600160a01b031685876040518082805190602001908083835b60208310620011c85780518252601f199092019160209182019101620011a7565b6001836020036101000a03801982511681845116808217855250505050505090500191505060006040518083038185875af1925050503d80600081146200122c576040519150601f19603f3d011682016040523d82523d6000602084013e62001231565b606091505b5091509150620012438282866200124e565b979650505050505050565b606083156200125f575081620010e0565b825115620012705782518084602001fd5b8160405162461bcd60e51b81526004018080602001828103825283818151815260200191508051906020019080838360005b83811015620012bc578181015183820152602001620012a2565b50505050905090810190601f168015620012ea5780820380516001836020036101000a031916815260200191505b509250505060405180910390fd5b6109b380620013078339019056fe608060405234801561001057600080fd5b506040516109b33803806109b38339818101604052606081101561003357600080fd5b8151602083015160408085018051915193959294830192918464010000000082111561005e57600080fd5b90830190602082018581111561007357600080fd5b825164010000000081118282018810171561008d57600080fd5b82525081516020918201929091019080838360005b838110156100ba5781810151838201526020016100a2565b50505050905090810190601f1680156100e75780820380516001836020036101000a031916815260200191505b5060408181527f656970313936372e70726f78792e696d706c656d656e746174696f6e0000000082525190819003601c0190208693508592508491508390829060008051602061095d8339815191526000199091011461014357fe5b610155826001600160e01b0361027a16565b80511561020d576000826001600160a01b0316826040518082805190602001908083835b602083106101985780518252601f199092019160209182019101610179565b6001836020036101000a038019825116818451168082178552505050505050905001915050600060405180830381855af49150503d80600081146101f8576040519150601f19603f3d011682016040523d82523d6000602084013e6101fd565b606091505b505090508061020b57600080fd5b505b5050604080517f656970313936372e70726f78792e61646d696e000000000000000000000000008152905190819003601301902060008051602061093d8339815191526000199091011461025d57fe5b61026f826001600160e01b036102da16565b5050505050506102f2565b61028d816102ec60201b61054e1760201c565b6102c85760405162461bcd60e51b815260040180806020018281038252603681526020018061097d6036913960400191505060405180910390fd5b60008051602061095d83398151915255565b60008051602061093d83398151915255565b3b151590565b61063c806103016000396000f3fe60806040526004361061004e5760003560e01c80633659cfe6146100655780634f1ef286146100985780635c60da1b146101185780638f28397014610149578063f851a4401461017c5761005d565b3661005d5761005b610191565b005b61005b610191565b34801561007157600080fd5b5061005b6004803603602081101561008857600080fd5b50356001600160a01b03166101ab565b61005b600480360360408110156100ae57600080fd5b6001600160a01b0382351691908101906040810160208201356401000000008111156100d957600080fd5b8201836020820111156100eb57600080fd5b8035906020019184600183028401116401000000008311171561010d57600080fd5b5090925090506101e5565b34801561012457600080fd5b5061012d610292565b604080516001600160a01b039092168252519081900360200190f35b34801561015557600080fd5b5061005b6004803603602081101561016c57600080fd5b50356001600160a01b03166102cf565b34801561018857600080fd5b5061012d610389565b6101996103b4565b6101a96101a4610414565b610439565b565b6101b361045d565b6001600160a01b0316336001600160a01b031614156101da576101d581610482565b6101e2565b6101e2610191565b50565b6101ed61045d565b6001600160a01b0316336001600160a01b031614156102855761020f83610482565b6000836001600160a01b031683836040518083838082843760405192019450600093509091505080830381855af49150503d806000811461026c576040519150601f19603f3d011682016040523d82523d6000602084013e610271565b606091505b505090508061027f57600080fd5b5061028d565b61028d610191565b505050565b600061029c61045d565b6001600160a01b0316336001600160a01b031614156102c4576102bd610414565b90506102cc565b6102cc610191565b90565b6102d761045d565b6001600160a01b0316336001600160a01b031614156101da576001600160a01b0381166103355760405162461bcd60e51b815260040180806020018281038252603a815260200180610555603a913960400191505060405180910390fd5b7f7e644d79422f17c01e4894b5f4f588d331ebfa28653d42ae832dc59e38c9798f61035e61045d565b604080516001600160a01b03928316815291841660208301528051918290030190a16101d5816104c2565b600061039361045d565b6001600160a01b0316336001600160a01b031614156102c4576102bd61045d565b6103bc61045d565b6001600160a01b0316336001600160a01b0316141561040c5760405162461bcd60e51b81526004018080602001828103825260428152602001806105c56042913960600191505060405180910390fd5b6101a96101a9565b7f360894a13ba1a3210667c828492db98dca3e2076cc3735a920a3ca505d382bbc5490565b3660008037600080366000845af43d6000803e808015610458573d6000f35b3d6000fd5b7fb53127684a568b3173ae13b9f8a6016e243e63b6e8ee1178d6a717850b5d61035490565b61048b816104e6565b6040516001600160a01b038216907fbc7cd75a20ee27fd9adebab32041f755214dbc6bffa90cc0225b39da2e5c2d3b90600090a250565b7fb53127684a568b3173ae13b9f8a6016e243e63b6e8ee1178d6a717850b5d610355565b6104ef8161054e565b61052a5760405162461bcd60e51b815260040180806020018281038252603681526020018061058f6036913960400191505060405180910390fd5b7f360894a13ba1a3210667c828492db98dca3e2076cc3735a920a3ca505d382bbc55565b3b15159056fe5472616e73706172656e745570677261646561626c6550726f78793a206e65772061646d696e20697320746865207a65726f20616464726573735570677261646561626c6550726f78793a206e657720696d706c656d656e746174696f6e206973206e6f74206120636f6e74726163745472616e73706172656e745570677261646561626c6550726f78793a2061646d696e2063616e6e6f742066616c6c6261636b20746f2070726f787920746172676574a264697066735822122040e9f47c717991df24648f6e9ad41623256191b47ff91cb30ed0655cee97a13a64736f6c63430006040033b53127684a568b3173ae13b9f8a6016e243e63b6e8ee1178d6a717850b5d6103360894a13ba1a3210667c828492db98dca3e2076cc3735a920a3ca505d382bbc5570677261646561626c6550726f78793a206e657720696d706c656d656e746174696f6e206973206e6f74206120636f6e74726163744f776e61626c653a206e6577206f776e657220697320746865207a65726f2061646472657373416464726573733a20696e73756666696369656e742062616c616e636520666f722063616c6c496e697469616c697a61626c653a20636f6e747261637420697320616c726561647920696e697469616c697a65644f776e61626c653a2063616c6c6572206973206e6f7420746865206f776e65725361666545524332303a204552433230206f7065726174696f6e20646964206e6f742073756363656564a2646970667358221220aff5fa70c01db4429f539313afdce17c95a03b925b97cf7f4defa87953dac0dc64736f6c63430006040033",
  "source": "pragma solidity 0.6.4;\n\nimport \"./interfaces/ISwap.sol\";\nimport \"./bep20/BEP20UpgradeableProxy.sol\";\nimport './interfaces/IProxyInitialize.sol';\nimport \"openzeppelin-solidity/contracts/token/ERC20/SafeERC20.sol\";\nimport \"openzeppelin-solidity/contracts/proxy/Initializable.sol\";\nimport \"openzeppelin-solidity/contracts/GSN/Context.sol\";\n\ncontract  BSCSwapAgentImpl is Context, Initializable {\n\n\n    using SafeERC20 for IERC20;\n\n    mapping(address => address) public swapMappingETH2BSC;\n    mapping(address => address) public swapMappingBSC2ETH;\n    mapping(bytes32 => bool) public filledETHTx;\n\n    address payable public owner;\n    address public bep20ProxyAdmin;\n    address public bep20Implementation;\n    uint256 public swapFee;\n\n    event OwnershipTransferred(address indexed previousOwner, address indexed newOwner);\n    event SwapPairCreated(bytes32 indexed ethRegisterTxHash, address indexed bep20Addr, address indexed erc20Addr, string symbol, string name, uint8 decimals);\n    event SwapStarted(address indexed bep20Addr, address indexed erc20Addr, address indexed fromAddr, uint256 amount, uint256 feeAmount);\n    event SwapFilled(address indexed bep20Addr, bytes32 indexed ethTxHash, address indexed toAddress, uint256 amount);\n\n    constructor() public {\n    }\n\n    /**\n     * @dev Throws if called by any account other than the owner.\n     */\n    modifier onlyOwner() {\n        require(owner == _msgSender(), \"Ownable: caller is not the owner\");\n        _;\n    }\n\n    modifier notContract() {\n        require(!isContract(msg.sender), \"contract is not allowed to swap\");\n        require(msg.sender == tx.origin, \"no proxy contract is allowed\");\n       _;\n    }\n\n\n\n    function initialize(address bep20Impl, uint256 fee, address payable ownerAddr, address bep20ProxyAdminAddr) public initializer {\n        bep20Implementation = bep20Impl;\n        swapFee = fee;\n        owner = ownerAddr;\n        bep20ProxyAdmin = bep20ProxyAdminAddr;\n    }\n\n    function isContract(address addr) internal view returns (bool) {\n        uint size;\n        assembly { size := extcodesize(addr) }\n        return size > 0;\n    }\n\n    /**\n    * @dev Leaves the contract without owner. It will not be possible to call\n    * `onlyOwner` functions anymore. Can only be called by the current owner.\n    *\n    * NOTE: Renouncing ownership will leave the contract without an owner,\n    * thereby removing any functionality that is only available to the owner.\n    */\n    function renounceOwnership() public onlyOwner {\n        emit OwnershipTransferred(owner, address(0));\n        owner = address(0);\n    }\n\n    /**\n     * @dev Transfers ownership of the contract to a new account (`newOwner`).\n     * Can only be called by the current owner.\n     */\n    function transferOwnership(address payable newOwner) public onlyOwner {\n        require(newOwner != address(0), \"Ownable: new owner is the zero address\");\n        emit OwnershipTransferred(owner, newOwner);\n        owner = newOwner;\n    }\n\n    /**\n     * @dev Returns set minimum swap fee from BEP20 to ERC20\n     */\n    function setSwapFee(uint256 fee) onlyOwner external {\n        swapFee = fee;\n    }\n\n    /**\n     * @dev createSwapPair\n     */\n    function createSwapPair(bytes32 ethTxHash, address erc20Addr, string calldata name, string calldata symbol, uint8 decimals) onlyOwner external returns (address) {\n        require(swapMappingETH2BSC[erc20Addr] == address(0x0), \"duplicated swap pair\");\n\n        BEP20UpgradeableProxy proxyToken = new BEP20UpgradeableProxy(bep20Implementation, bep20ProxyAdmin, \"\");\n        IProxyInitialize token = IProxyInitialize(address(proxyToken));\n        token.initialize(name, symbol, decimals, 0, true, address(this));\n\n        swapMappingETH2BSC[erc20Addr] = address(token);\n        swapMappingBSC2ETH[address(token)] = erc20Addr;\n\n        emit SwapPairCreated(ethTxHash, address(token), erc20Addr, symbol, name, decimals);\n        return address(token);\n    }\n\n    /**\n     * @dev fillETH2BSCSwap\n     */\n    function fillETH2BSCSwap(bytes32 ethTxHash, address erc20Addr, address toAddress, uint256 amount) onlyOwner external returns (bool) {\n        require(!filledETHTx[ethTxHash], \"eth tx filled already\");\n        address bscTokenAddr = swapMappingETH2BSC[erc20Addr];\n        require(bscTokenAddr != address(0x0), \"no swap pair for this token\");\n        filledETHTx[ethTxHash] = true;\n        ISwap(bscTokenAddr).mintTo(amount, toAddress);\n        emit SwapFilled(bscTokenAddr, ethTxHash, toAddress, amount);\n\n        return true;\n    }\n    /**\n     * @dev swapBSC2ETH\n     */\n    function swapBSC2ETH(address bep20Addr, uint256 amount) payable external notContract returns (bool) {\n        address erc20Addr = swapMappingBSC2ETH[bep20Addr];\n        require(erc20Addr != address(0x0), \"no swap pair for this token\");\n        require(msg.value == swapFee, \"swap fee not equal\");\n\n        IERC20(bep20Addr).safeTransferFrom(msg.sender, address(this), amount);\n        ISwap(bep20Addr).burn(amount);\n        if (msg.value != 0) {\n            owner.transfer(msg.value);\n        }\n\n        emit SwapStarted(bep20Addr, erc20Addr, msg.sender, amount, msg.value);\n        return true;\n    }\n}",
  "sourcePath": "/home/phillipe/eth-bsc-swap-contracts/contracts/BSCSwapAgentImpl.sol",
  "compiler": {
    "name": "solc",
    "version": "0.6.4+commit.1dca32f3.Emscripten.clang"
  },
  "schemaVersion": "3.3.3",
  "updatedAt": "2021-03-06T05:25:38.273Z",
  "devdoc": {
    "methods": {
      "createSwapPair(bytes32,address,string,string,uint8)": {
        "details": "createSwapPair"
      },
      "fillETH2BSCSwap(bytes32,address,address,uint256)": {
        "details": "fillETH2BSCSwap"
      },
      "renounceOwnership()": {
        "details": "Leaves the contract without owner. It will not be possible to call `onlyOwner` functions anymore. Can only be called by the current owner.    * NOTE: Renouncing ownership will leave the contract without an owner, thereby removing any functionality that is only available to the owner."
      },
      "setSwapFee(uint256)": {
        "details": "Returns set minimum swap fee from BEP20 to ERC20"
      },
      "swapBSC2ETH(address,uint256)": {
        "details": "swapBSC2ETH"
      },
      "transferOwnership(address)": {
        "details": "Transfers ownership of the contract to a new account (`newOwner`). Can only be called by the current owner."
      }
    }
  },
  "userdoc": {
    "methods": {}
  }
}